:020000040800F2
:10000000F8090020890100081D360008D12D0008DC
:1000100019360008C9030008553700080000000021
:10002000000000000000000000000000253600086D
:10003000D903000800000000213600082936000816
:10004000A3010008A3010008A3010008A301000800
:10005000A3010008A3010008A3010008A3010008F0
:10006000A3010008A3010008A3010008CD030008B4
:10007000A3010008A3010008A3010008A3010008D0
:10008000A3010008A301000891020008A3010008D1
:10009000A3010008A3010008A3010008A3010008B0
:1000A000A3010008A3010008A3010008A3010008A0
:1000B000A301000831360008A3010008A3010008CD
:1000C000A3010008A3010008A3010008A301000880
:1000D000A301000801370008A3010008A3010008DC
:1000E000A3010008A3010008A301000800F002F822
:1000F00000F03AF80AA090E8000C82448344AAF188
:100100000107DA4501D100F02FF8AFF2090EBAE885
:100110000F0013F0010F18BFFB1A43F0010318473B
:100120002842000048420000103A24BF78C878C135
:10013000FAD8520724BF30C830C144BF04680C60ED
:10014000704700000023002400250026103A28BF35
:1001500078C1FBD8520728BF30C148BF0B60704739
:100160001FB51FBD10B510BD00F058F81146FFF7C0
:10017000F7FF03F043FB00F076F803B4FFF7F2FF5C
:1001800003BC00F07DF8000009488047094800479B
:10019000FEE7FEE7FEE7FEE7FEE7FEE7FEE7FEE737
:1001A000FEE7FEE704480549054A064B7047000094
:1001B0002D360008ED000008F8030020F8090020A3
:1001C000F8050020F80500204FF0000200B51346A6
:1001D00094469646203922BFA0E80C50A0E80C5067
:1001E000B1F12001BFF4F7AF090728BFA0E80C5018
:1001F00048BF0CC05DF804EB890028BF40F8042B11
:1002000008BF704748BF20F8022B11F0804F18BF7D
:1002100000F8012B7047704770477047754600F033
:100220002BF8AE4605006946534620F00700854688
:1002300018B020B5FFF7B6FFBDE820404FF000062C
:100240004FF000074FF000084FF0000BAC46ACE851
:10025000C009ACE8C009ACE8C009ACE8C00921F0AD
:1002600007018D46704710B50446AFF30080204665
:10027000BDE81040FFF781BF004870471000002024
:1002800001491820ABBEFEE72600020070470000BF
:1002900040F29800C2F2000000F000BA0146406A45
:1002A000826A12F0500F03D0006A026B08461047B2
:1002B0000168826A42F400728262896801F46021F6
:1002C000B1F5602F01D1017B11B100F059B900BF28
:1002D000816A21F480718162816AC90448BF00F09B
:1002E0004FB9816A41F00101816200F049B9000013
:1002F000406A816A41F040018162C16A41F00401B3
:10030000C16200F0C5B90000406A00F0BFB900004A
:10031000B0B582B004460020019021688A68D207F7
:100320004FD1886840F00100886040F20800C2F2B6
:10033000000000684DF68361C4F21B31A0FB01018F
:10034000880C01900198A0B10198013801900198A2
:1003500078B1019801380190019850B101980138A5
:100360000190019828B10198013801900198002866
:10037000EAD100F08FFE21688968C9071CD10546C3
:1003800003E000BF8068C0071AD100F083FE411B64
:1003900020680329F6D38168C907F3D1A06A40F029
:1003A0001000A062E06A40F00100E062002084F8E2
:1003B0002400012002B0B0BD002002B0B0BD00BFDB
:1003C000002002B0B0BD0000FEE7000040F2C820EF
:1003D000C2F2000000F0EEBB70470000EFF31080A7
:1003E00072B600BFFEE700007047000010B581B094
:1003F0000022009290F82420012A03D1022108460D
:1004000001B010BD4B680122062B80F8242015D8BE
:10041000026803EB8303A3F1050E1F23D2F834C057
:1004200003FA0EF40B682CEA040C03FA0EF444EA07
:100430000C045463092B17D937E000BF02680C2B5A
:1004400020D803EB8303A3F123041F23D2F830C089
:1004500003FA04FE0B682CEA0E0C03FA04F444EAD7
:100460000C041463092B20D8D2F810C003EB43030B
:10047000072489689C402CEA0404994021431161B7
:10048000002136E003EB8303A3F141041F23D2F8DC
:100490002CC003FA04FE0B682CEA0E0C03FA04F4D9
:1004A00044EA0C04D462092BDED903EB4304D2F8EE
:1004B0000CC0A4F11E0E0724896804FA0EF42CEA7D
:1004C000040401FA0EF1214323F00104102CD16041
:1004D0000ED142F20841C4F20101A1F10804A24286
:1004E0000ED0816A41F020018162012101E000BF4C
:1004F0000021002280F82420084601B010BD00BF72
:100500000A68120230D40A68102B42F400020A6012
:100510002CD140F20801C2F2000109684DF6836255
:10052000C4F21B32A1FB0212910C01EB81014900C4
:1005300000910099E1B10099013900910099C9B188
:100540000099013900910099B1B1009901390091E8
:10055000009999B1009901390091009900294FF053
:100560000001E8D1C5E700BF0021C2E70021C0E7D4
:100570000021BEE70021BCE70021BAE70021B8E76F
:1005800070B5006842F20041C4F20101884201D016
:1005900070BD00BF40F27006C2F2000606F12800EE
:1005A00000F078F8727940F2C801C2F20001FE2A28
:1005B00021F8120002D2F468501C4AE00020002307
:1005C0000A180C5A558823442B449588D4882B4408
:1005D0001589234454892B4495892344D4892B4479
:1005E000158A2344548A2B44958A2344D48A2B4465
:1005F000158B2344548B2B44958B2344D48B2B4451
:10060000128C23442230B0F5FF7F1344D8D148F236
:100610008100C8F28000A3FB0001C80903F062FB5F
:1006200044F22D3243F2E263CEF61C32C3F67A7303
:1006300003F06CFB45F248024DF27373C1F6FC0205
:10064000CBF6F57303F0A6FA03F072FA0446F060F5
:10065000002000217071C4F24811204603F050FDC3
:1006600040B90021C4F24011204603F050FD00289B
:1006700018BF70BD0021C4F24011204603F047FDB1
:10068000002818BF0120307070BD000070470000C6
:10069000704700000068C06C7047000010B5044649
:1006A00000684168890644BF01685FEA81710BD424
:1006B0004168090644BF01685FEA41712AD4416874
:1006C00049065BD410BD00BFA16AC90603D4A16A64
:1006D00041F40071A162816801F46021B1F5602FDD
:1006E00010D1217B71B9416821F020014160A06ADD
:1006F00020F48070A062A06AC00403D4A06A40F015
:100700000100A0622046FFF73BFF20686FF0120156
:100710000160CDE7A16AC90603D4A16A41F4005182
:10072000A162816801F4E041B1F5E04F10D1416868
:1007300021F080014160A06A20F48050A062A06A8C
:10074000C00511D4A06A40F00100A0620CE000BF17
:100750004168490508D4816801F46021B1F5602F32
:1007600002D1217B0029E2D02046FFF73DFE206820
:100770006FF00C01016041684906A3D50068C0070D
:1007800008BF10BDA06A40F48030A062204600F08F
:10079000B3F820686FF00101016010BDB0B500280A
:1007A00000F0A8800446806A20B121688868C007EC
:1007B0000BD114E00020E06284F82400204600F011
:1007C0009DF821688868C00709D0886820F001007A
:1007D000886000F05FFC21688A68D20726D1A06A91
:1007E000C0063AD4A06A41F2021290430230A062DD
:1007F000E069D4E9013240EA030C531EB3FA83F3F3
:100800005D091346B2F5807F18BF2B02207D257B42
:1008100001284CEA450030D135B3A56A45F02005E2
:10082000A562E56A45F00105E56226E0054602E0BD
:100830008868C007D3D000F02DFC401B2168032836
:10084000F6D38868C007F3D0A06A40F01000A06219
:10085000E06A40F00100E062A06AA06A40F0100087
:10086000A0620120B0BD00BFD4F818C04EF600054C
:10087000CFF6FF7505EB4C352B434D68B2F5807F05
:1008800025F4694543EA05034B608B684FF2FD751B
:10089000CFF6E17503EA050343EA00038B6001D05C
:1008A000012A07D122690023CFF6F07303EB02522D
:1008B00001E000BF0022CB6A23F470031A43CA622E
:1008C000896840F6FE62CFF61F721140814207D15F
:1008D0000020E062A16A012262F30101A162B0BDC1
:1008E000A06A40F0100020F00200A062E06A40F030
:1008F0000100E0620120B0BD7047000070B586B015
:10090000044640F60000C4F20100216800F5E05200
:10091000002691420596049602D006B070BD00BF35
:1009200041F21801C4F202010A6842F400720A603E
:100930000A6802F400720192019A0A6842F0040205
:100940000A60096801F004010191019902210291F4
:100950000321039102A900F085FA40F2C82508207E
:10096000C2F20005C4F202004FF48072C5E900062D
:1009700005F1100080214FF480634CC02846C5E982
:100980000261EE6100F0E4F9002818BFFFF726FDD0
:1009900012200021002225626C6201F0A9F91220C8
:1009A00001F096F906B070BD70B5154604460068B2
:1009B00042F60002C4F2010290420E4605D042F215
:1009C0000041C4F20101884209D142F20440C4F25C
:1009D0000100006810F4702F1CBF012070BD94F856
:1009E0002400012804BF022070BD012084F82400E7
:1009F0002046FFF78DFC18B1002184F8241070BD4B
:100A000042F204402168A26AC4F2010040F6017378
:100A10009A4300F57F7302F580729942A26243D037
:100A2000A06A20F48010A0624868400504D5A06A3E
:100A3000012262F30D30A062A26A0020D2044FF0BE
:100A4000000244BFE26A22F00602E26284F8240057
:100A5000206A40F29D22C0F6000240F2093340F2C3
:100A6000F12C00F1280EC0F60003C0F6000C8EE851
:100A70000C106FF002020A608A682B4642F4807202
:100A80008A604C31324600F09FF92068816801F499
:100A900060228168B2F5602F0CBF41F4A00141F4DF
:100AA00080118160002070BD026812F4702FB7D0F1
:100AB000A26A42F48012A26200684005BCD5B6E783
:100AC000014690F82100022816D10868D1E90FC329
:100AD000026822F00E020260026822F00102026047
:100AE000012000FA03F2CCF8042081F82100002054
:100AF000002281F820207047042088630120002212
:100B000081F820207047000080B590F8211002295C
:100B100024D10268116821F00E0111602F211368A1
:100B2000C4F202018A4240F20401C4F2020123F03D
:100B30000103136016DD3023C4F202039A421DD074
:100B40004423C4F202039A421CD05823C4F2020385
:100B50009A421DD14FF4803322E000BF042181630B
:100B6000012080BD0823C4F202039A420ED01C2348
:100B7000C4F202039A420BD1102311E04FF48073A8
:100B80000EE000BF4FF480530AE000BF012307E0EE
:100B900001F1680C4FF08073624508BF4FF4801379
:100BA0000B60416B4FF48072028401B188470020D2
:100BB00080BD000010B5D0E90FCE0168DCF8003030
:100BC0000A6823FA0EF35C072AD512F0040427D032
:100BD0000A68920603D40A6822F004020A602F22EF
:100BE000C4F20202914240F20402C4F2020259DD50
:100BF0003023C4F20203994270D04423C4F20203AA
:100C0000994271D05823C4F20203994278D14FF42B
:100C100080231360C16A002940F097806EE000BF16
:100C20009C0727D512F0020424D00A68920606D445
:100C30000A6822F00A020A60012280F821202F228D
:100C4000C4F20202914240F20402C4F2020239DD0F
:100C50003023C4F2020399425ED04423C4F202035B
:100C600099425DD05823C4F2020399425ED14FF4F9
:100C7000003363E01B0741D512F0080208BF10BD26
:100C80000A6822F00E020A60012101FA0EF2CCF885
:100C900004208163016B4FF480720029028454D1D7
:100CA0002CE000BF0823C4F20203994222D01C2387
:100CB000C4F20203994223D140231360C16A002980
:100CC00043D11BE00823C4F2020399422CD01C2319
:100CD000C4F20203994229D120232FE04FF480630C
:100CE0001360C16A89BB09E04FF480431360C16A95
:100CF00059BB03E004231360C16A31BB10BD00BFC0
:100D000002F168044FF08063A14208BF4FF48003F2
:100D10001360C16AC9B9F1E74FF400730EE000BF78
:100D20004FF400530AE000BF022307E002F1680419
:100D30004FF00073A14208BF4FF400131360816AA3
:100D40000022002980F82020D8D0BDE810400847B4
:100D5000002804BF012070472DE9F04101684FF6DB
:100D6000F872CBF6FD724CF6CD430A44CCF6CC4378
:100D7000A2FB03236FF0030707EA93030027C4F2E3
:100D8000020700F1040E00F11008C0E90F739EE89D
:100D9000045098E870010B6843F6F077BB431A43A0
:100DA00042EA0C0242EA0E0222432A43324342EA5A
:100DB00008020A6000214FF4807281630284BDE85A
:100DC000F041084670470000F0B590F820C0BCF133
:100DD000010F32D090F821C04FF0010EBCF1010F8D
:100DE00080F820E026D14FF0020C80F821C04FF0AF
:100DF000000CC0F838C0D0E900C4C56AC66BDCF886
:100E00000070102C27F00107CCF80070006C0EFA6F
:100E100000F070600846CCF8043004BF10460A4663
:100E2000CCF80800CCF80C20DCF8000045B140F00C
:100E30000E000DE0002180F820100220F0BD00BF60
:100E400020F00400CCF80000DCF8000040F00A00BC
:100E5000CCF80000DCF8000040F00100CCF8000005
:100E60000020F0BD2DE9F04F82B041F20042C4F203
:100E700001020E680423904208BF0323002E009352
:100E800000F0F68040F20C4E4FF6FF7CC4F2010EEB
:100E900000220124C1F2100C4FF0000A4FF00009AB
:100EA00043E000BF012502F00C040F27A7402BEA06
:100EB000070705FA04F43C4343F82640D1F804B090
:100EC00040F20045C4F201055FEACB332B6854BF02
:100ED00023EA080343EA08032B606B685FEA8B345C
:100EE00054BF23EA080343EA08036B605FEACB249C
:100EF000AB6854BF23EA080343EA08035FEA8B2484
:100F0000AB60DEF800304FF0010454BF23EA080361
:100F100043EA0803CEF800300E680AF1010A36FAF7
:100F20000AF302F1040200F0A38004FA0AF816EAB8
:100F3000080FF1D04B68634512DC122B56D8DFE85E
:100F400003F0350B4549555555555555555555558E
:100F50005555554D510000BFD1F80C9046E000BFEB
:100F60004FF6FF77C1F22107BB420FDC0027C1F229
:100F70001107BB421AD00027C1F21207BB4215D09D
:100F80000027C1F22107BB4210D02FE00027C1F299
:100F90002207BB420AD00027C1F23107BB4205D06D
:100FA0000027C1F23207BB4220D100BF8B684BB192
:100FB000012B14BFC0F81480C0F810804FF008094E
:100FC00014E000BF4FF0040910E000BFCB6803F14C
:100FD00008090BE04FF0000908E000BFCB6803F1FF
:100FE000040903E0CB6803F10C0900BF1346054672
:100FF000BAF1080F24BF203B04352E680F279F400D
:10100000BE4309FA03F333432B60CB79DB067FF54C
:1010100083AF41F21804C4F2020423684FEA9A062F
:1010200043F001032360236840F6000403F001034A
:101030000193019B40F20043C4F20103A3F57E73C8
:1010400053F826B0C4F20104A0420FD040F6004489
:10105000C4F20104A0423FF425AF41F20004C4F2FF
:101060000104009DA04208BF02251CE700251AE7E5
:1010700002B0BDE8F08F0000C26802EA01039143AC
:1010800041EA034101617047002A08BF0904016178
:101090007047000040F2F030C2F200000068704774
:1010A00070B5B8B3044690F83D0028B9002084F824
:1010B0003C00204600F0CEFC242084F83D0020684F
:1010C000016821F001010160016841F40041016003
:1010D000016821F40041016000F0ACFF48F280415A
:1010E000C0F21E0140F60013D4F804E088424FF02D
:1010F0000001C0F23D0348F2A16C4FF0000238BF7E
:1011000001219842C0F2010C38BF0122E64538BFE8
:101110000A460AB1012070BD4DF68361C4F21B314D
:10112000A0FB01122168950C4B684FF4967623F0D2
:101130003F0343EA9243754344F6D3564B60C1F2F2
:1011400062060B6AA5FB0656B50923F03F03E64588
:1011500038BF950C6A1C1A430A62CA6948F2A06635
:101160004CF6FF73C0F20106B64522EA03020BD823
:1011700001384FEA4E03B0FBF3F001306FF31F303C
:10118000042898BF04201EE0A368013863B1192326
:101190000EFB03F3B0FBF3F001306FF31F3078B1B7
:1011A00000F5804008E000BF0EEB4E03B0FBF3F00B
:1011B00001306FF31F3028B100F5004003E000BF9D
:1011C000012000E001201043C8610868D4E907232A
:1011D00020F0C000104318430860886848F2FF32CE
:1011E00004F10C0690434CCE18431043A569886067
:1011F000C86820F0FF0030432843C860086840F00A
:101200000100086000202021206484F83D10206344
:1012100084F83E0070BD00002DE9F04F81B01D46FE
:1012200090460E460446FFF735FF94F83D102029FE
:1012300018D107462168886980070FD5FFF72AFF74
:10124000C01B1928F6D900202021206384F83D1006
:1012500084F83E00216C0225C1E000BF94F83C00F8
:10126000012805D10225284601B0BDE8F08F00BF56
:10127000012084F83C000868C00703D1086840F0EA
:1012800001000860086806F0FE0920F400600860AC
:10129000242084F83D00002020640020CFF6FF7059
:1012A000012605F1010A4FF0A00BE062B8F1020F30
:1012B00098BF4FF00208086840F4807008604869E1
:1012C000C0070FD1BAF1000F56D0002D00F09C805E
:1012D000FFF7E0FEC01BA84200F298802168486931
:1012E000C007F5D0C1F81090FFF7D4FE21684B6914
:1012F0004A6994F83D70A02F07461ED013F00200F3
:1013000008BF12F4806018D1FFF7C4FE35B1C01BCE
:10131000A84288BF84F83DB002E000BF84F83DB029
:1013200021684A69486994F83D30A02B05D012F035
:10133000020208BF10F48060E6D0202084F83D004F
:1013400048690A68800742F400720A6022D46FF488
:10135000806048618869800709D500BFFFF79AFE61
:10136000C01B192832D8216888698007F6D4013655
:101370004645A0D13CE000BF4869C007B2D14869EA
:10138000C00704BF48695FEAC070ABD14869C007B5
:10139000F2D0A7E700250095486900908869009081
:1013A00000988869800708D5FFF774FEC01B1928CC
:1013B0000CD8206880698007F6D4202084F83D008E
:1013C00084F83C50284601B0BDE8F08F0020202171
:1013D000206384F83D1084F83E00216C012541F023
:1013E0002001216484F83C00284601B0BDE8F08F5C
:1013F000202084F83D000020012584F83C00284688
:1014000001B0BDE8F08F00BFFFF744FE00202021AF
:10141000206384F83D1084F83E00216C032541F0E0
:1014200020012164216884F83C000868C00544BF9D
:101430004FF400702064284601B0BDE8F08F000032
:101440002DE9F04F85B0044600201E4617460D4694
:101450000490FFF71FFE94F83D10202923D1804609
:1014600020688169890719D5FFF714FEA0EB0800F1
:101470001928F5D900202021206384F83D1084F834
:101480003E00206C04F13C0940F020002064022062
:10149000002189F8001005B0BDE8F08FA14619F8C9
:1014A0003C1F012904D1022005B0BDE8F08F00BF28
:1014B000012289F800200368DDE90F1A0E9ADB0784
:1014C00003D1036843F001030360036823F400635E
:1014D0000360222084F83D00402084F83E00002074
:1014E000206462626185608D294620850020CFF6E8
:1014F000FF70E06220463A463346CDF800A0CDF8B2
:10150000048001F067FC18B1012005B0BDE8F08F40
:10151000208D022810D0012824D0002838D10020A6
:1015200003902068416903918169039103990168DF
:1015300041F40071016037E02068016841F4006106
:101540000160EFF3108072B60020039020684169BB
:101550000391816903910399016821F4806101601D
:1015600062B621E02068016821F480610160EFF338
:10157000108072B600200390206841690391816950
:1015800003910399016841F40071016062B60BE0B8
:101590002068016841F48061016000210391416984
:1015A0000391806903900398208D002800F0238127
:1015B00040F2080B4BF289570AF10105C2F2000B09
:1015C000C1F2F847232680B2032819D8022845D053
:1015D00001286FD1BAF1000F00F0FA8020680146AF
:1015E00051F8142F520600F1F7800868C00600F188
:1015F0002F81FFF74FFDA0EB08005045EED91CE10D
:10160000BAF1000F12D000BF2068014651F8142F24
:10161000520610D40868C00600F11A81FFF73AFD9F
:10162000A0EB08005045EFD907E100BF20684169F1
:10163000490640F1FB800069616A0870606A2268AF
:10164000411C208D616201382085638D013B6385DB
:1016500053695B0740F1CC801069BFE020684169A5
:10166000490711D4002D00F09380BAF1000F00F06B
:10167000E280FFF70FFDA0EB0800504500F2DD808F
:10168000206840694007F4D5EFF3108072B62068F7
:10169000616A026842F40072026000690870606A60
:1016A000218D01306062481E2085608D0138608583
:1016B00062B668E020684169490710D4002D77D0F0
:1016C000BAF1000F00F0B780FFF7E4FCA0EB0800D0
:1016D000504500F2B280206841694907F4D501689D
:1016E00021F480610160EFF3108072B62068616AB6
:1016F00000690870606A218D0130013960622185BE
:10170000618D01396185DBF80010C908A1FB071262
:10171000110A714304910499013904910499002933
:1017200076D021684A6952071DD404990139049181
:10173000049900296CD021684A69520713D404998E
:10174000013904910499002962D021684A6952073D
:1017500009D40499013904910499002958D02168C9
:101760004A695207D7D50A6842F400720A600969CB
:101770000170606A218D01306062481E2085608D95
:101780000138608562B62068616A006926E000BFA2
:10179000416949073FF578AF416949075CBF416935
:1017A0005FEA41713FF570AF41694907F0D56BE7DA
:1017B0004169490793D4416949075CBF41695FEAC0
:1017C00041713FF58CAF41694907F1D587E700BF0B
:1017D00020684169490629D50069616A0870606A14
:1017E000218D01306062481E2085618D013961853F
:1017F00001047FF4E8AE202084F83D00002084F846
:101800003E00002189F8001005B0BDE8F08F00BF50
:1018100000202021206384F83D1084F83E00206CD5
:1018200040F02000206462B61EE000BF50F8141F94
:10183000C90601460CD4FFF72DFC002020212063AF
:1018400084F83D1084F83E00206C40F020000AE04F
:101850006FF01000086000202021206384F83D1004
:1018600084F83E00206C20640120002189F80010DB
:1018700005B0BDE8F08F00002DE9F04383B0994634
:1018800016460F460446FFF705FC94F83D10202944
:101890001CD1054620688169890713D5FFF7FAFB3B
:1018A000401B1928F6D900202021206384F83D1020
:1018B00084F83E00216C41F02001216484F83C0052
:1018C00004E000BF94F83C10012903D1022003B0CA
:1018D000BDE8F083012284F83C200368DDE90B18A1
:1018E0000A9ADB0703D1036843F00103036003682E
:1018F00023F400630360212084F83D00402084F835
:101900003E000020206462626185608D394620853A
:101910000020CFF6FF70E062204632464B46CDF8FD
:101920000080019501F0E6FB20B1012003B0BDE885
:10193000F08300BF208D002850D0206808F10106F8
:10194000014651F8142F12062CD49EB1B8F1000FA5
:101950005AD000BF086840055ED4FFF79BFB401BD0
:10196000404556D82068014651F8142F1206F1D58B
:1019700018E000BF0A6852054ED40A68120611D456
:101980000A68520548D40A6812060BD40A68520540
:1019900042D40A68120605D40A6852053CD40A6883
:1019A0001206E7D5626A114611F8013B0361238DE7
:1019B0006162591E2185678D013F678547697F07F1
:1019C0000AD50F0408D051780161911C6162991EFB
:1019D0002185628D013A62850904B1D120464146D4
:1019E0002A4601F0C1FC38BB2068016841F400714F
:1019F0000160202084F83D00002084F83E0084F837
:101A00003C0003B0BDE8F0830868400504D4FFF74C
:101A100041FB202004E000BF6FF4806008600420D8
:101A200000212022216384F83D2084F83E10226C9E
:101A30001043206484F83C10206C04287FF475AFB8
:101A40002068016841F400710160012003B0BDE825
:101A5000F083000010B586B045F200410068C4F282
:101A6000000100228842049202D006B010BD00BFDF
:101A700041F21804C4F20204206840F0080020601B
:101A8000206800F0080001900198C0200290122008
:101A900003900320059001F5384002A9FFF7E2F911
:101AA000606840F400106060606800F4001001900D
:101AB000019806B010BD0000B0B538B30446006808
:101AC000D4E901124CF6CC43036045F25553036050
:101AD00041608260FFF7DEFA2168CA6892070FD082
:101AE000054602E0C86880070AD0FFF7D3FA401B1A
:101AF00021682828F6D3C8688007F3D00320B0BD3A
:101B00004AF6AA2008600020B0BD00BF0120B0BD89
:101B100001684AF6AA2200200A60704740F20000DD
:101B200040F2F031C2F20000C2F2000100780A680F
:101B3000104408607047000080B542F20000C4F213
:101B40000200016841F010010160032000F0FCF880
:101B50000F2000F005F800F0A1F8002080BD000083
:101B600070B540F20006C2F2000640F20801327879
:101B7000C2F200014FF47A730968B3FBF2F2044633
:101B8000B1FBF2F1084600F057FC0F2C4FF00105B5
:101B900008D838B94FF0FF3021460022002500F068
:101BA000A7F87460284670BD002804BF0120704764
:101BB000B0B5044690F83D000D4628B9002084F8E1
:101BC0003C00204601F038F8242084F83D002068CD
:101BD000D4E90212C36823F40053C360036923F4F9
:101BE00040531A430261D4E904231143C2681943E4
:101BF00041F20C639A431143C1604169A26921F427
:101C00004071114343F60002C4F201029042416167
:101C100002D000F00FFA01E000F020FA626819210A
:101C200048439100B0FBF1F048F21F51C5F2EB11AF
:101C3000A0FB01235A096FF0630302FB0300322368
:101C400003EB0010A0FB0101F02303EA511320680D
:101C500003EB0212C1F3431111448160016921F4C5
:101C600000610161416921F02A014161016941F48A
:101C700080410161016921F020010161016929436D
:101C80000161C16841F40051C1600020202120643D
:101C900084F83D1084F83E10B0BD000082B041F2DF
:101CA0001800C4F20200016841F0010101600168FE
:101CB00001F0010101910199416841F080514160B9
:101CC000406800F080500090009802B0704700001B
:101CD000002848BF704700F01F01012202FA01F1FD
:101CE0004EF200124009CEF2000242F82010704776
:101CF00010B54EF60C5CCEF2000CDCF80030C3F3ED
:101D0000022E8EF00704042C28BF0424BEF1030326
:101D10004FF0FF3E0EFA04F438BF0023A143994070
:101D20000EFA03F39A43114300F00F02043A62449F
:101D300009010C3200F16043B0F1FF3FC8BF03F569
:101D40006442117010BD00004EF60C51CEF200013D
:101D50000A684FF6FF031A4060F30A2242F08060DF
:101D600040F0FD70086070472DE9F04182B00446F4
:101D7000007841F21C06C007C4F202064AD030685F
:101D800010F0805808D1306840F0805030603068E2
:101D900000F080500190019847F20007C4F200075C
:101DA0003868C00512D4386840F480703860FFF796
:101DB00071F905463868C00508D4FFF76BF9401B78
:101DC0006428F7D9032002B0BDE8F081706810F4F0
:101DD000407012D0616801F4407188420DD0706883
:101DE00040F24042C4F24222012320F440711360C9
:101DF0000023C007136071602AD17068616820F405
:101E000040700843B8F1000F706003D1306820F0D3
:101E1000805030602068810707D556F8181CA268EA
:101E200021F44041114346F8181CC00604D4002098
:101E300002B0BDE8F08100BF56F8180CE16820F44C
:101E40008000084346F8180C002002B0BDE8F0817D
:101E5000FFF720F9054641F2883700BF7068800718
:101E6000CBD4FFF717F9401BB8424FF00300F5D968
:101E7000EBE700002DE9F04381B0002800F08580F9
:101E800042F20008C4F202080446D8F800000D46E9
:101E900000F0070088420CD2D8F8000020F00700BC
:101EA0002843C8F80000D8F8000000F00700A84256
:101EB0006BD1206841F204098107C4F2020917D5E9
:101EC000410705D5D9F8001041F4E061C9F80010C8
:101ED000010705D5D9F8001041F46051C9F8001088
:101EE000D9F80010A26821F0F0011143C9F80010E0
:101EF000C00741D1D8F8000000F00700A8420CD973
:101F0000D8F8000020F007002843C8F80000D8F8EF
:101F1000000000F00700A84237D12068410707D52C
:101F2000D9F80010E26821F4E0611143C9F800100B
:101F3000000708D5D9F80000216920F4605040EA74
:101F4000C100C9F80000D9F8002002F00C000828F0
:101F500041F20020C0F27A0050D144F23833C2F38B
:101F60008341C0F60003595CD2033BD440F6001015
:101F7000C0F23D00484341E0606802280AD00128D1
:101F80002AD159F8041C890308D4012001B0BDE806
:101F9000F08300BF59F8041C8901F6D5D9F8001068
:101FA00021F003010843C9F80000FFF773F8064663
:101FB00041F28837D9F80000616800F00C00B0EBFE
:101FC000810F97D0FFF766F8801BB842F2D9032043
:101FD00001B0BDE8F08300BF59F8041C8907D4D5CF
:101FE000DCE700BFD9F8002044F21E33C2F34042C0
:101FF000C0F600039A5C4843B0FBF2F0D9F8001039
:1020000044F22032C1F30311C0F60002515C40F2E9
:10201000080220FA01F140F20400C2F20000006858
:10202000C2F200021160FFF79BFD002001B0BDE885
:10203000F083000040F2080041F20401C2F2000007
:10204000C4F202010068096844F23032C1F302218F
:10205000C0F60002515CC8407047000040F2080022
:1020600041F20401C2F20000C4F2020100680968F2
:1020700044F23032C1F3C221C0F60002515CC840C4
:10208000704700002DE9F04182B0002868D0044676
:10209000007841F20006C007C4F2020625D070683D
:1020A00000F00C0004281BD0706800F00C00082819
:1020B00002D17068C00313D46068002800F0688102
:1020C000B0F5A02F00F07C81B0F5803F00F07C815E
:1020D000306820F480303060306820F4802076E171
:1020E0003068800301D56068D0B32078800718D5A8
:1020F000706810F00C0F07D0706800F00C00082812
:102100006ED17068C0036BD43068800702D5206937
:10211000012825D13068616920F0F80040EAC1004B
:102120003060207800071FD42078400732D4E5695A
:1021300095B1706800F00C00082840F08F80012DE8
:102140000ED07068216A00F480328A4208D1616A38
:1021500000F47010884203D1002002B0BDE8F08185
:10216000012002B0BDE8F081A069002862D0002003
:10217000C4F242200121C0F88014FEF78BFF05460F
:10218000706A800700F18C80FEF784FF401B0228F4
:10219000F6D92AE1F06910F0805808D1F06940F0D2
:1021A0008050F061F06900F080500090009847F294
:1021B0000007C4F200073868C00529D4386840F425
:1021C00080703860FEF766FF054600BF3868C005BE
:1021D0001ED4FEF75FFF401B6428F7D905E100BF5E
:1021E0002069002840F20000C4F2422000F0828002
:1021F00001210160FEF74EFF054600BF30688007F1
:102200003FF588AFFEF746FF401B0228F6D9ECE009
:10221000E068002800F08080052800F09780012801
:1022200000F09880306A20F001003062306A20F0BF
:10223000040092E00020C4F242200021C0F8801483
:10224000FEF728FF054600BF706A80077FF56CAF78
:10225000FEF720FF401B0228F6D9C6E00027C4F293
:10226000422700203866FEF715FF022D05460BD1E8
:102270003068800140F1BE80FEF70CFF401B022851
:102280004FF00300F4D968E7306880017FF564AF50
:10229000FEF700FF401B02284FF00300F4D95CE773
:1022A00040F20800C2F20000006844F6D351C1F2C7
:1022B0006201A0FB0101480A019000BF00BF019824
:1022C000411E002801913FF42FAF00BF0198411E2D
:1022D000002801913FF428AF00BF0198411E00285B
:1022E00001913FF421AF00BF0198411E00280191E8
:1022F000E4D119E700210160FEF7CCFE054600BFDE
:10230000306880077FF50DAFFEF7C4FE401B022842
:102310004FF00300F4D920E7306A20F0010030626A
:10232000306A20F004003062FEF7B4FE054641F248
:10233000883700BF306A800720D5FEF7ABFE401B10
:10234000B8424FF00300F5D907E700BF306A40F00C
:1023500004003062306A40F001003062FEF79AFEFD
:10236000054641F2883700BF306A800706D4FEF781
:1023700091FE401BB842F7D937E000BFB8F1000F1B
:102380007FF4D5AEF06920F08050F061CFE600BF59
:10239000306820F480303060306820F48020306075
:1023A000FEF778FE054600BF306880037FF59DAEDE
:1023B000FEF770FE401B64284FF00300F4D9CCE612
:1023C000306840F480203060306840F48030306005
:1023D000FEF760FE054600BF306880033FF585AE1E
:1023E000FEF758FE401B6428F6D9032002B0BDE872
:1023F000F08100BF206AB0F5803F05D17168A26806
:1024000021F40031114371607168626A21F4741122
:1024100010430843706001203866FEF73BFE044617
:10242000306880013FF598AEFEF734FE001B0228AD
:102430004FF00300F4D990E6411E0020B0EB116F7D
:102440001CBF012070474EF21002CEF20002516014
:102450004EF62351CEF20001F0230B70072190605D
:1024600011607047704700007047000010B590F889
:102470003C20012A4FF0020233D080F83D20026850
:10248000D2F804E0D2F808C00C682EF070032343A1
:1024900040F2FF74C4F20004A24253600ADCB2F1BD
:1024A000804F13D040F20043C4F200039A420DD093
:1024B00011E000BF42F60043C4F201039A4205D086
:1024C00040F60003C4F200039A4204D149682CF09C
:1024D0008003194391600121002280F83D1080F8AB
:1024E0003C20104610BD0000002804BF01207047AA
:1024F00010B5044690F83D0028B9002084F83C004F
:10250000204600F067F8022084F83D00206840F281
:10251000FF730268C4F2000342F6004C9842C4F212
:10252000010C15DCB0F1804F1AD040F20041C4F22A
:102530000001884214D0984218DCB0F1804F1DD0C1
:1025400040F20041C4F20001884217D01AE000BFF7
:10255000604505D040F60001C4F200018842EAD18E
:10256000A16822F070020A439842E6DD604505D07A
:1025700040F60001C4F20001884203D1216922F42F
:1025800040720A43A36922F08001D4F804E0E268B3
:10259000194360450160C262C0F828E002D1616958
:1025A000CCF8301001214161002084F8461084F8F5
:1025B0003E1084F83F1084F8401084F8411084F8ED
:1025C000421084F8431084F8441084F8451084F8CD
:1025D0003D1010BD80B582B0006840F20041C4F2E9
:1025E000000188421CBF02B080BD41F21C00C4F251
:1025F00002000168002241F0020101600068002130
:1026000000F00200019001981D20FFF771FB1D20D2
:1026100002B0BDE88040FFF75BBB000090F83D10C2
:1026200001291CBF01207047022180F83D1000687D
:1026300040F2FF72C168C4F20002904241F0010111
:10264000C16009DCB0F1804F12D040F20041C4F209
:10265000000188420CD012E042F60041C4F20101B0
:10266000884205D040F60001C4F20001884206D13C
:10267000816801F00701062904BF00207047016846
:1026800041F00101016000207047000080B590F822
:102690003C20012A4FF0020200F0BF8080F83D206C
:1026A000D0F800C04FF67772DCF8083023EA020257
:1026B000CCF808200B683F2B1CDD5F2B20DD602B46
:1026C00050D0B3F5005F6DD0702B40F0A080D1E901
:1026D00001E3C968DCF8082043EA0E0322F47F42D4
:1026E00043EA01211143CCF80810DCF8081041F04E
:1026F00077018AE01F2B29DC63B3102B2AD086E0F8
:10270000402B63D0502B40F08280D1F804E0C968A0
:10271000DCF82030DCF8202022F00102CCF8202068
:10272000DCF8182022F0F00242EA011123F00A023C
:1027300042EA0E02CCF81810CCF82020DCF8081081
:1027400041F0570121F020015FE000BF202B01D0B4
:10275000302B5CD1DCF8081021F07001194341F0F6
:10276000070152E0D1F804E0C968DCF8203023F01A
:102770001003CCF82030DCF81830DCF8202023F4EB
:10278000704322F0A00243EA013142EA0E12CCF873
:102790001810CCF82020DCF8081041F0670121F077
:1027A000100132E0D1E901E3C968DCF8082043EA0E
:1027B0000E0322F47F4243EA01211143CCF80810B2
:1027C000DCF8081041F480411FE000BFD1F804E0BC
:1027D000C968DCF82030DCF8202022F00102CCF8B7
:1027E0002020DCF8182022F0F00242EA011123F048
:1027F0000A0242EA0E02CCF81810CCF82020DCF8CD
:10280000081041F0470121F03001CCF808100121F7
:10281000002280F83D1080F83C20104680BD00006A
:102820007047000010B5016804460869800744BF7E
:10283000C8685FEA807039D40869400744BFC86837
:102840005FEA40703ED40869000744BFC8685FEA89
:10285000007045D40869C00644BFC8685FEAC0601C
:102860004AD40869C0071CBFC8685FEAC07051D16C
:102870000869000644BFC8685FEA006052D408696E
:10288000400644BFC8685FEA406053D408698006C8
:1028900046BFC8685FEA806010BD6FF02002204626
:1028A0000A61BDE81040FFF7DFBD00BF6FF0020016
:1028B0000861012020778869800743D02046FFF710
:1028C000AFFF45E06FF004000861022020778869BF
:1028D00010F4407F40D02046FFF7A2FF42E000BF47
:1028E0006FF00800086104202077C86980073DD098
:1028F0002046FFF795FF3FE06FF0100008610820C9
:102900002077C86910F4407F3AD02046FFF788FF4F
:102910003CE000BF6FF001000861204600F03EF887
:102920002168A5E76FF0800008612046FFF79AFD57
:102930002168A4E76FF040000861204600F040F8ED
:102940002168A3E7204600F025F8204600F024F88F
:102950002168002020776FE7204600F01BF8204612
:1029600000F01AF82168002020776CE7204600F07C
:1029700011F8204600F010F821680020207769E760
:10298000204600F007F8204600F006F821680020F5
:10299000207766E77047000070470000006840F24B
:1029A0000041C4F20001884218BF704740F2700134
:1029B000C2F2000101F128000A310122FDF7F4BF43
:1029C000704700007047000070470000B0B582B04B
:1029D000026805461068D368546900F02F01202969
:1029E00003F0200106D129B1284602B0BDE8B0406D
:1029F00000F02ABE5FEA007C1EBF04F0010E03F463
:102A0000907414EB0E0455D1296B012905D110F0F7
:102A1000100118BF13F0100136D1010622D513F0B2
:102A200080011FD095F83D00212841D1A868B0F55C
:102A3000805F03D12869002800F0F680286A411CD5
:102A4000296200785060E88C01380104E8842FD1B5
:102A5000D06820F08000D060D06840F04000D060A6
:102A600002B0B0BD400623D513F0400020D0D0689E
:102A7000202120F04000D060284685F83D1002B0AB
:102A8000BDE8B04000F0A2B90020019010680190AC
:102A90005068019001985069400613D4A88DE98DC3
:102AA000EB8D002B1CBF401A5FEA004140F0A48070
:102AB00002B0B0BDC40718BF13F480732CD1430714
:102AC00030D436E0A86B01684B689CB2002CEFD084
:102AD000A98D8C42ECD2EB858369202B17D0D1686D
:102AE00021F48071D160516921F001015161516976
:102AF00021F040015161202185F83E100021296319
:102B0000D16821F01001D160FDF7DAFFA98DE88DC1
:102B1000081A81B2284682E02B6C43F001032B6433
:102B2000430706D5BEF1000F03D02B6C43F0020320
:102B30002B64830706D5BEF1000F03D02B6C43F046
:102B400004032B64BCF1000F06D551EA0E0303D039
:102B50002B6C43F008032B642B6C002BA8D010F0D7
:102B6000200018BF002903D0284600F06DFD2A6818
:102B70005069296C00F0400001F0080140182DD088
:102B8000D06820F49070D060506920F0010050614E
:102B9000286B012803D1D06820F01000D0602020DD
:102BA00085F83E0000202863506940061ED5506914
:102BB00020F040005061A86BC0B143F23D61C0F607
:102BC00000014163FDF7A0FF00283FF471AFA86B3F
:102BD000416B02B0BDE8B040084700BF2846FFF790
:102BE000F3FE0020286402B0B0BD00BF284602B04A
:102BF000BDE8B040FFF7E8BED16821F49071D16024
:102C0000516921F001015161202185F83E10002118
:102C10002963D16821F0100381B22846D36002B045
:102C2000BDE8B040FFF7CEBE286A30F8021B6FF354
:102C30005F215160286206E770B586B040F6000457
:102C4000C4F20104006804F540510026884204964D
:102C500002D006B070BD00BF41F21800C4F20200FD
:102C6000016802AD41F480410160016801F48041D6
:102C700001910199016841F0040101600068294651
:102C800000F00400019001984FF4007002900220BF
:102C90000390032005902046FEF7E4F84FF480608F
:102CA000CDE90206204629460496FEF7DBF82520EA
:102CB00000210022FFF71CF82520FFF709F806B0D5
:102CC00070BD0000034690F83E0020280AD100297C
:102CD0004FF0010018BF002A00D1704793F83C0064
:102CE000012801D102207047002018639962222137
:102CF0009A85DA85186483F83E10196883F83C00D9
:102D0000CA6842F48072CA604A6942F001024A61AC
:102D1000CA6842F02002CA607047000010B540F255
:102D20000E04C2F200042078042819D003282BD006
:102D3000022849D140F2EC30C2F200000078552858
:102D400038D140F2A83040F2EC310323C2F2000047
:102D5000C2F2000101222370BDE81040FFF7B2BFAC
:102D600040F2EC30C2F2000000788E2818BF10BD8F
:102D700000F0F2FC41F20000C4F201004FF40051F7
:102D8000FEF77AF916E000BF40F2EC30C2F2000024
:102D900000788E280ED140F2A83040F28001042342
:102DA000C2F20000C2F2000108222370BDE8104008
:102DB000FFF788BF012140F28C00C2F200002170B1
:102DC000BDE81040FEF7A4BE10BD00007047000033
:102DD000FEE700002DE9F04383B004460068994601
:102DE0000368904643F48062026002680B9D42F4DF
:102DF0008072026042690A9ED2070F461DD1711C83
:102E000011D0002E00F03681FEF744F9401BB0428D
:102E100000F2328120684169C907F5D00DE000BF9A
:102E20004169C90709D14169C90706D14169C90783
:102E300004BF41695FEAC171F2D007F0FE07076184
:102E40004169890738D44169721C01F4806111D04D
:102E500049BB002E00F03A81FEF71CF9401BB0423E
:102E600000F2368120684169890725D44169490506
:102E7000F2D518E0B9B9416989071DD441694905FE
:102E800011D44169890717D4416949050BD44169B7
:102E9000890711D44169490505D4416989070BD4D3
:102EA00041694905E7D5016841F4007101606FF49B
:102EB0008061416104200CE100210291014651F83A
:102EC000142F02924A680292029A0A68120620D4CB
:102ED000002E00F0AB80721C51D10A68520500F13F
:102EE000AD800A68120614D40A68520500F1A68063
:102EF0000A6812060DD40A68520500F19F800A681C
:102F0000120606D40A68520500F198800A68120673
:102F1000E3D5B9F1010F45D04FEA1821016101460F
:102F200051F8142F12063DD4002E00F07F80721C41
:102F30002AD10A68520500F181800A68120631D44C
:102F40000A6852057AD40A6812062BD40A68520518
:102F500074D40A68120625D40A6852056ED40A6829
:102F60001206E6D51EE000BFFEF794F8401BB04203
:102F700061D82068014651F8142F1206C9D4086898
:102F80004005F1D55AE000BF0868400556D4FEF769
:102F900081F8401BB0424ED82068014651F8142FEA
:102FA0001206F1D55FFA88F10161014651F8142F3C
:102FB00012061AD4D6B3721C33D10A6852053DD416
:102FC0000A68120611D40A68520537D40A68120634
:102FD0000BD40A68520531D40A68120605D40A686F
:102FE00052052BD40A681206E7D50168002241F485
:102FF0008071016020464FF001113346009500F0CA
:1030000007FA002850D02068006844E0FEF742F834
:10301000401BB0420FD82068014651F8142F120609
:10302000E3D408684005F1D508E000BF0868400512
:1030300004D4FEF72FF8202004E000BF6FF4806076
:103040000860042000212022216384F83D2084F8B8
:103050003E10226C1043206484F83C10206C04283D
:1030600043D12068016841F400710160012003B080
:10307000BDE8F083FEF70EF800202021206384F8DD
:103080003D1084F83E00216C41F02001216421684C
:1030900084F83C000868C00544BF4FF40070206409
:1030A000032003B0BDE8F083206847F0010101610F
:1030B0000221C0F20101204632462B4600F050FAB0
:1030C000002818BF012003B0BDE8F083FDF7E2FF40
:1030D000202000212022216384F83D2084F83E1026
:1030E000226C1043206484F83C10012003B0BDE83A
:1030F000F08300002DE9F04381B00446006890465B
:103100000268099D42F4807202604269089E9946F5
:10311000D2070F461DD1711C11D0002E00F0D280B5
:10312000FDF7B8FF401BB04200F2CE802068416935
:10313000C907F5D00DE000BF4169C90709D1416950
:10314000C90706D14169C90704BF41695FEAC17176
:10315000F2D007F0FE0101614169890738D4416965
:10316000721C01F4806111D049BB002E00F0E88090
:10317000FDF790FF401BB04200F2E48020684169F7
:10318000890725D441694905F2D518E0B9B94169E3
:1031900089071DD44169490511D44169890717D4AC
:1031A000416949050BD44169890711D44169490531
:1031B00005D4416989070BD441694905E7D5016800
:1031C00041F4007101606FF4806141610420BAE054
:1031D00000210091014651F8142F00924A68009294
:1031E000009A0A6812061ED4002E00F08580721C18
:1031F0004DD10A68520500F187800A68120612D480
:103200000A68520500F180800A6812060BD40A6829
:10321000520579D40A68120605D40A68520573D497
:103220000A681206E5D5B9F1010F43D04FEA18211B
:103230000161014651F8142F12063BD4002E5BD0D9
:10324000721C29D10A6852055ED40A68120631D46C
:103250000A68520558D40A6812062BD40A68520527
:1032600052D40A68120625D40A6852054CD40A685A
:103270001206E7D51EE000BFFDF70CFF401BB04271
:103280003FD82068014651F8142F1206CBD40868A5
:103290004005F1D538E000BF0868400534D4FDF79B
:1032A000F9FE401BB0422CD82068014651F8142F7B
:1032B0001206F1D55FFA88F10161002001B0BDE886
:1032C000F08300BFFDF7E6FE00202021206384F894
:1032D0003D1084F83E00216C41F0200121642168FA
:1032E00084F83C000868C00544BF4FF400702064B7
:1032F000032001B0BDE8F0830868400504D4FDF761
:10330000C9FE202004E000BF6FF480600860042044
:1033100000212022216384F83D2084F83E10226C95
:103320001043206484F83C10206C042817D12068D6
:10333000016841F400710160012001B0BDE8F08333
:10334000FDF7A8FE202000212022216384F83D20E3
:1033500084F83E10226C1043206484F83C10012055
:1033600001B0BDE8F083000070B50368044653F86F
:10337000140F400737D40E46F1B1701C24D100BFA2
:103380001868400532D4186840072CD418684005E6
:103390002CD41868400726D41868400526D418682D
:1033A000400720D41868400520D4186840074FF023
:1033B000000048BF70BDE3E71868400516D4FDF76C
:1033C00069FE202016E000BF154600BF18684005C2
:1033D0000CD4FDF75FFE401BB042F2D8236853F8CF
:1033E000140F4007F2D5002070BD00BF6FF480605D
:1033F0001860042000212022216384F83D2084F8F5
:103400003E10226C10432064012084F83C1070BDF3
:103410002DE9F04105461446DDF8188001F47F00DF
:103420002A681E46B0F5803F8FB241D150693840BE
:10343000C01BB0FA80F04009A0427BD1701C2DD097
:10344000002E7BD0FDF726FEA0EB0800B04277D817
:10345000286840693840C01BB0FA80F04009A0429B
:10346000F0D00020BDE8F08150693840C01BB0FAB0
:1034700080F04009A0425DD150693840C01BB0FACD
:1034800080F04009A04255D150693840C01BB0FAC5
:1034900080F04009A0424FF000005FD150693840F1
:1034A000C01BB0FA80F04009A042DDD042E000BF6E
:1034B00090693840C01BB0FA80F04009A04239D171
:1034C000701C1FD0D6B300BFFDF7E4FDA0EB0800D1
:1034D000B04235D8286880693840C01BB0FA80F007
:1034E0004009A042F0D00020BDE8F081906938404A
:1034F000C01BB0FA80F04009A0424FF0000018BF96
:10350000BDE8F08190693840C01BB0FA80F04009F6
:10351000A0420FD190693840C01BB0FA80F040093A
:10352000A04207D190693840C01BB0FA80F0400932
:10353000A042DBD00020BDE8F08100BFFDF7AAFD6E
:1035400000202021286385F83D1085F83E00296C75
:1035500041F02001296485F83C000120BDE8F0819C
:10356000F0B581B0044600681D4643698FB203EA96
:103570000701B94202D1002001B0F0BD41691646F1
:10358000013201F480610FD059BB9EB3FDF782FD7B
:10359000401BB04230D8206841693940B942EAD076
:1035A00041694905F2D51CE0D9B941693940B942B0
:1035B000E1D04169490514D441693940B942DAD0B2
:1035C000416949050DD441693940B942D3D04169B7
:1035D000490506D441693940B942CCD04169490511
:1035E000E3D5016841F4007101606FF480614161CD
:1035F000042002E0FDF74EFD20200021202221635F
:1036000084F83D2084F83E10226C1043206484F836
:103610003C10012001B0F0BDFEE70000FEE7000015
:103620007047000070470000FEF778BA704700004E
:1036300040F26030C2F20000FFF7F4B8406A0021A7
:10364000C185C184FFF7C0B981B090F83E1022292E
:1036500020D18368B3F5805F08D10169002941D08A
:1036600000F128010A6803685B680AE0014651F826
:10367000282F13B90369002BF5D003685B6803F0AA
:103680007F0313700A6801320A60C18D01390A0490
:10369000C18501D001B070470168CA6822F02002DC
:1036A000CA60CA6822F48072CA604A6922F00102C4
:1036B0004A61202280F83E20026B012A1CD10022A0
:1036C0000263CB6823F01003CB600B68DB0605D5E3
:1036D00000920A680092496800910099818D01B0BA
:1036E000FFF770B90168826A49686FF35F2122F8B9
:1036F000021B8262C9E700BF01B0FFF70FBB0000E9
:1037000010B540F2A834C2F200042046FFF75EF97B
:1037100040F20E03C2F200031878012818BF10BD52
:1037200020680168C90501D410BD00BF01680224EA
:1037300021F480710160406840F2A83040F2EC3121
:10374000C2F20000C2F2000101221C70BDE810406C
:10375000FFF7B8BAFEE7000070B584B040F270051C
:10376000C2F20005697C0020742907D0252907D002
:103770000C290FD1012200210EE000BF01210AE037
:10378000E8784FF48071698000216970287104B075
:1037900070BD00BF00210022A970E9786A7001297C
:1037A0002971E87028D1A87940F20C06013818BFB9
:1037B0000120C2F2000640F20C34A87131882A8937
:1037C0008DF80F0001200DF10F03C2F200044FF03D
:1037D000FF3CCDE9003020461023CDF808C0FEF7AD
:1037E0004BF800BF3188204601224FF0FF33FDF730
:1037F00013FD0028E871F5D104B070BD98B0FEF754
:103800009BF90EAC201D2421FCF7DEFC0A200E9053
:103810000120102100251290CDE9131020460795B4
:10382000CDE905551595FEF72DFC28B1EFF3108075
:1038300072B600BFFEE700BF0F20CDE9080508A85B
:103840000021CDE90A550C95FEF714FB20B1EFF3EA
:10385000108072B6FEE700BF4FF00208002404A8F3
:10386000CDF810800694FEF77FFA28B1EFF31080B0
:1038700072B600BFFEE700BF41F21807C4F20207AC
:10388000386840F6000940F0100038603868C4F22B
:10389000010900F010000E900E98386809F50065D7
:1038A00040F00400386038684FF4005100F0040024
:1038B0000E900E983868002240F008003860386892
:1038C0004FF4005600F008000E900E982846FDF7C1
:1038D000DBFB484640F61C01002240F61C0BFDF7BE
:1038E000D3FB0E960EAE4FF0010A28463146CDE9C5
:1038F0000FA4CDF84480FDF7B5FA48463146CDE92E
:103900000EBACDE91048FDF7ADFA57F8040C0021C6
:1039100040F0010047F8040C57F8040C002200F0B6
:1039200001000E900E980B20FEF7E2F90B20FEF737
:10393000CFF940F27007C2F2000709F5E0513846AE
:1039400040F8281F4FF4602104730475C161C0E979
:103950000144C0F810A0FCF721FF28B1EFF310805C
:1039600072B600BFFEE700BF072007F128051090E0
:103970000EA92846CDE90EAAFCF738FD20B1EFF3D9
:10398000108072B6FEE700BF40F20C30A9F534415A
:10399000C2F2000048F2A06200244FF48043C0F25B
:1039A000010280E81600C0E90343C0E90544C0E90C
:1039B0000744FDF775FB28B1EFF3108072B600BF26
:1039C000FEE700BF40F2A83609F54050C2F20006FB
:1039D0004FF496410C2286E8130030462021C6E9B8
:1039E0000344C6E90524FEF7DFF828B1EFF31080A1
:1039F00072B600BFFEE700BF40F260300021A9F5BB
:103A00008232C2F200004F234FF47A741191CDE953
:103A10000F11CDE90811C0E90023C0E902140161CA
:103A20008161FEF761FD28B1EFF3108072B600BF2F
:103A3000FEE700BF4FF480500E9040F260300DF171
:103A40003808C2F200004146FEF720FE20B1EFF335
:103A5000108072B6FEE700BF40F26030C2F2000094
:103A600008A9FEF703FD28B1EFF3108072B600BF7E
:103A7000FEE700BFA9F55841384640F81C1F032156
:103A80004FF47A72C0E90112FEF716F820B1EFF395
:103A9000108072B6FEE700BF40F26030C2F2000054
:103AA000FEF7BCFD07F10A01284601220124FCF7BC
:103AB0007BFF48464FF400610122FDF7E5FA3068CC
:103AC0004FF0FF360169102341F04001016140F2DF
:103AD0000C00C2F2000001883A8940F20C30C2F2B8
:103AE0000000CDE900840296FDF7AAFC9DF838009D
:103AF000B871BA7848461021002A18BF0122FDF794
:103B0000C3FA7A7848460821002A18BF0122FDF737
:103B1000BBFAB8793978002818BF0120002918BFEE
:103B2000012100EA010248460421FDF7ADFAE0E771
:103B300021F0004201F00043A2F16052B2F5801F73
:103B400028BFD2F17F6C0BD95FEA001C43EAC202A6
:103B500042EB507018BF704728BF20F0010070473B
:103B6000B2F5801FBCBF184670474FEA410C1CF5E8
:103B7000001F02D2084600F0CDBB70B500F070F90E
:103B800000000089FFF7F6BF4FF00040A0F580006D
:103B90007047000010B591EA030F48BF83F000435F
:103BA00000F1BA81841A71EB030C05D2121943EBB0
:103BB0000C03001B61EB0C014FEA1154A4EB135CE6
:103BC000DFF81CE11EEA430F18BF9EEA445F00F0D5
:103BD000748021EA045123EA0E0343F48013DCF1DC
:103BE000200E32D322FA0CFE10EB0E0023FA0CFE4C
:103BF00041EB0E01CCF1200E03FA0EFE10EB0E008D
:103C0000CCF1200E51F10001B1F5801F32D201EB51
:103C1000045112FA0EF2BDE8104058BF7047401C24
:103C200038BF5FEA420218BF7047002814BF20F077
:103C3000010041F100014FEA410313F5001F38BFB5
:103C40007047A1F1C04100F059B9012A43EB0302CA
:103C5000ACF1200CDCF11F0E32BF4FF0000E23FA46
:103C60000CF310EB030041EB0451B4EB115FD0D027
:103C7000A1EB045101F58011490801EB04515FEA01
:103C800030000ED350F1000038BF12FA0EFE08D1FA
:103C9000BDE81040C9E7401C38BF5FEA4202CAD104
:103CA000C3E7BDE810404FEA410313F5001F38BFDA
:103CB0007047A1F1C04100F021B99EEA445F08D0ED
:103CC00011EA5E0FBDE8104004BF01F00041002082
:103CD0007047BDE8104070B500F0C2F864FBBE3E0E
:103CE0000000E0FFB0FA80F310FA03F10AD0C3F14C
:103CF0001D0303F580634FEA03524FEA415002EB84
:103D0000D12170474FF000007047000070B5DFF818
:103D100048C11CEA111E1EBF1CEA13159EEA0C0FB7
:103D200095EA0C0F00F06F8081EA03044EEAD47E1E
:103D3000AE4421EA4C1123EA4C1341F4801143F4C0
:103D40008013AEF17F7EA1FB024CA0FB0365361908
:103D500055EB0C05A1FB034C4CF10003A0FB021C2E
:103D600016EB0C06654153F10003094218BF46F0FB
:103D7000010613F4007F0BD14FEA03314FEA0530FF
:103D800041EA155140EA165034036FF003020AE08D
:103D90004FEAC3214FEAC52041EA555140EA565047
:103DA000F4026FF0020202EB2E4201EB025585EAAB
:103DB000CE710AD05FEA440C18BF24F0004450F1E1
:103DC000000041F1000120EAD47040F2FE7C62451F
:103DD00000D270BDA84214BF4FF080444FF0404461
:103DE000002E08BF0024BEF1806FA8BFA1F1C04122
:103DF000BDE8704080F2828001F1C04101F00041D5
:103E00004FF0000070470CEA13159EEA0C0F18BF24
:103E100095EA0C0F06D081EA030E4FF000000EF079
:103E2000004170BD00F01CF88900013E00F007B8A9
:103E300000F009B84FEA430C5FEA5C5C08D081EA05
:103E4000030100F05BB84FEA410C5FEA5C5CF6D11D
:103E500002494FF0000070470000FF070000F87FA4
:103E60000EF1020E2EF0030E5EF8046B364205D4FE
:103E7000012A43EB030515F5001F12D8012841EB79
:103E8000010C1CF5001F0CD80ED14FEAD17C0CEBB5
:103E90004C0C0CF1020C15F5001F08BF4CEBD37C49
:103EA00004E04FF0080C01E04FEAD37C0CEB4C052A
:103EB00026FA05F606F00706B6F1040C06D20EEB5C
:103EC000860CBDE870404CF0010C6047DFE80CF058
:103ED000090B02024FF00041A1F500214FF0000054
:103EE00070BD19461046012851EB010418BFD4F5E6
:103EF000001484BF002001F0004170BD0808A0F547
:103F000000114FEA3101704710B591EA030F48BF25
:103F100083F000433FF546AE841A71EB030C07D2E1
:103F20008CF0004C121943EB0C03001B61EB0C01ED
:103F30004FEA1154A4EB135CDFF8A4E11EEA430F2F
:103F400018BF9EEA445F00F0B48021EA045123EADE
:103F50006E035242C3EB6E0338BF5B1EDCF1200ED2
:103F600025D322FA0CFE10EB0E0043FA0CFE41EBB7
:103F70000E01CCF1200E03FA0EFE10EB0E00CCF178
:103F8000200E51F1000129D401EB045112FA0EF276
:103F9000BDE8104058BF7047401C1CBFB2F1004F35
:103FA000704700280CBF491C20F00100704712EB3D
:103FB000020E43EB030218BF4FF0010E4EEA42021D
:103FC000ACF1200CDCF11E0E56D943FA0CFE10EBBE
:103FD0000E00CCF11E0E51F1FF31D5D50EF1010EC0
:103FE00012FA0EFE404141EB010101EB445C5FEA35
:103FF0005C5C10D901EB045110EBDE7038BFBEF1F0
:10400000004FBDE8104018BF704700280CBF491C86
:1040100020F00100704734D24FEAD42C24F400641D
:1040200011F500111BD0B1FA81F20B3AA41AA41EAB
:10403000D2F12003914030FA03F31943904001EB91
:10404000CC7101EB0451002CBDE81040A8BF7047B3
:1040500001F1C04101F000414FF000007047B0FA9B
:1040600080F310FA03F102D1BDE810407047E41A62
:10407000173C4805C90AE2E701EB0451BDE81040CE
:10408000704749104FEA300001EB0451BDE8104081
:1040900002E04FF0000170474A0008BF0042F8D02C
:1040A000B2F5001F28BF704701F000414FF000003B
:1040B00070479EEA445F07D011EA5E0FBDE81040EA
:1040C00004BF002100207047BDE8104070B5FFF725
:1040D000C7FE00BF40DFF63E104683F00041704748
:1040E0000000E0FF10B500F033F80CBF0120002005
:1040F00010BD10B500F02CF814BF0120002010BD39
:1041000010B500F059F88CBF0120002010BD10B58B
:1041100000F052F82CBF0120002010BD10B500F0B7
:104120007FF894BF0120002010BD10B500F078F892
:1041300034BF0120002010BD401058BFC0F14040E6
:10414000491058BFC1F140418142EFF300807047F0
:1041500050EA010C00F113801CF5000F58BFBCF5AC
:10416000000F01D48842704707D710F5000F58BFE1
:1041700011F5000F15D488427047894270471CF52D
:10418000000F04D5BCF5000FF7D5814270474FF002
:10419000807C1CEB400F38BF1CEB410F01D28142E9
:1041A000704710B500F070F8922449004FF00050AD
:1041B0004FF08051FFF7C0BF50EA010C00F11380AF
:1041C0001CF5000F58BFBCF5000F01D488427047A2
:1041D00007D710F5000F58BF11F5000F15D488420E
:1041E0007047894270471CF5000F04D5BCF5000FDD
:1041F000F7D5814270474FF0807C1CEB400F38BFF1
:104200001CEB410F01D28142704710B500F03CF821
:10421000922449004FF080504FF00051FFF78CBFBF
:1042200050EA010C00F113801CF5000F58BFBCF5DB
:10423000000F01D48842704707D710F5000F58BF10
:1042400011F5000F15D488427047894270471CF55C
:10425000000F04D5BCF5000FF7D5814270474FF031
:10426000807C1CEB400F38BF1CEB410F01D2814218
:10427000704710B500F008F8922449004FF0005044
:104280004FF08051FFF758BF0EF1020E2EF0030ED3
:104290005EF8044B244204D44FEA4102B2F17F4F4E
:1042A00011D84FEA4003B3F17F4F0CD80ED14FEA3B
:1042B000D07C0CEB4C0C0CF1020CB2F17F4F08BF20
:1042C0004CEBD17C04E04FF0080C01E04FEAD17CCC
:1042D0000CEB4C0324FA03F404F00704B4F1040CCF
:1042E00006D20EEB840CBDE810404CF0010C604788
:1042F000DFE80CF0070802024FF00040A0F5800054
:1043000010BD0846420018BFD2F1807288BF00F08D
:10431000004010BDFF2141EAD050C00570470102A6
:104320000000000000000000010203040607080965
:104330000000000001020304020304050607080947
:104340000A0B0C0D0E0F101068430008000000202F
:104350001000000028010008784300081000002029
:10436000E8090000440100080100000010000000FE
:084370000024F400A00001008C
:04000005080000ED02
:00000001FF
